:06000000FEC0FECFFDCFA3
:10000600FCCFFBCFFACFF9CFF8CFF7CFF6CFF5CFAE
:10001600F4CFF3CFF2CFF1CFF0CFEFCFEECFEDCFDE
:100026009C98908098949894808095808080958004
:100036008095959580809580808095808095959512
:1000460080959595809595950001020405080B0EFF
:1000560012171C21272E353C444D565F69747F8A42
:1000660096A3B0BDCBDAE9F80001020405080B0E31
:1000760012171C21272E353C444D565F69747F8A22
:1000860096A3B0BDCBDAE9F800000000000000003E
:100096003E3E3E3E002C0020004C00300043002D2A
:1000A60000423A332C353800423A332C373000427E
:1000B6003A372C303400423A372C313000423A314C
:1000C600302C3100423A31342C3000423A31342C53
:1000D6003200423A31382C3100423A32312C30006B
:1000E600423A32372C3200423A32382C35005265C9
:1000F6006C6561736520627574746F6E21200020D3
:1001060055726566203D20006D562020004F4646FC
:10011600203D20666163742E72657365740020311C
:1001260057206C6576656C3D00507265737320428E
:100136007574746F6E204F4B200020313057206C41
:100146006576656C3D002020202E2E2E5361766547
:10015600642120202020004141542D5357522D5018
:1001660057526D657465720020594F365049522DAD
:1001760032303230284329200020204155544F0088
:1001860020204D414E550046776400202052657769
:100196000020202020202020202020202020202079
:1001A60020005357523A002020503D005700547506
:1001B6006E6572204F46462020200044656C6179AA
:1001C6002054696D652052656C617900206D73005D
:1001D60080C001002D4E414E00494E4600000100F0
:1001E60002008E0006000800900002008C01D60175
:1001F60001009301D8010000F894EE27ECBBF1E072
:10020600FBBFEBBFE5BFF8E1F1BDE1BD8DE0A2E0CC
:10021600BB27ED938A95E9F780E094E0A0E6ED939D
:100226000197E9F7E4EEF1E085919591009761F089
:10023600A591B59105901590BF01F00105900D921D
:100246000197E1F7FB01F0CFEFE5EDBFE4E0EEBF8C
:10025600C0E6D1E05AC361D7AE81BF81EFEFF3E0CC
:100266009CDBFF93EF935CD760D78827992715DC33
:10027600CCDAAF91BF91882799270FDC78DAE09323
:100286006001F093610160936201709363012896A7
:1002960008954ED7A885B98557D7E0936C01F0939A
:1002A6006D0160936E0170936F0158D75BD75DD770
:1002B600E8DBAE81BF8148D7E0937001F09371010E
:1002C600609372017093730155D7E0937801F093B0
:1002D600790160937A0170937B01A6E0B0E001DCBE
:1002E60049D77F936F93FF93EF93A0916C01B091E1
:1002F6006D0180916E0190916F014AD7AF91BF91C8
:100306008F919F914BD7E0936801F09369016093B9
:100316006A0170936B01A0916801B09169018091A7
:100326006A0190916B013DD770DAE0936401F09316
:1003360065016093660170936701AAE0B0E0D1DBC6
:100346000FC5F6D6AE81BF8186DFA0916001B09160
:10035600610180916201909163011AD77F936F9337
:10036600FF93EF93A6E0B0E0A8DBAF91BF918F912A
:100376009F9114D77F936F93FF93EF93AAE0B0E01A
:100386009CDBAF91BF918F919F913FDAA0E0B0E0E7
:1003960080E292E49CD9E0937401F0937501609336
:1003A600760170937701FDD66CDBA0917401B09154
:1003B60075018091760190917701F3D626DAF6D60B
:1003C600A5D5F4D6E5D610D92F01E7EEF3E0E4156E
:1003D600F50508F42F011DC6AA93C0DBEA81EE0FCE
:1003E600EE0FEE0FE0640E2F10E0183060F40A9363
:1003F6000395EC81FD813196EC83FD833197A491C1
:10040600E0D51F5FF2CFB1DB25960895AA931A9324
:10041600A5E0CFD6E0918A01F0918B01309791F05B
:1004260010E0183078F4EA81E07811F0AC9A01C057
:10043600AC98EA81EE0FEA83AB98BDD6AB9ABBD6F1
:100446001F5FEFCFA0918A01B0918B011197A1F0A8
:1004560010E0183078F4E981E07811F0AC9A01C028
:10046600AC98E981EE0FE983AD98A5D6AD9AA3D6EF
:100476001F5FEFCFADE09DD610C61A93A0D6A4D6C7
:10048600ACD63F01B3D6F0E0DF0154D810E011300E
:10049600D0F4E1E4AFD6B2D6F1F3349BFECFB2D6B8
:1004A6009CD6E2E4A7D6AAD6F1F3349BFECFAAD611
:1004B6008BD6E0E49FD6A2D6F1F3349BFECF64B090
:1004C60075B01F5FE4CFE0918001F09181016091EA
:1004D6008201709183019BD6FDD9A2D630DA7F9333
:1004E6006F93FF93EF93A0918001B091810180916A
:1004F600820190918301E0917C01F0917D016091F0
:100506007E0170917F01EBD9AF91BF918F919F9141
:100516005CDA8BD693D6A83EE3E0BE07E0E08E0712
:10052600E0E09E0718F473D605DB09F490D6062C96
:10053600072811F48824992419910895EED528974F
:1005460009DBEA89F0E0AFEFB3E03ADAEE83FF8346
:10055600A889B98922DAEA87FB871A85EA89E11B25
:100566005E2FEE81FF81AE85BF8517DAE887F987B2
:100576000885EA89E01B4E2FE12FEF5F3E2FE02F23
:10058600EF5F2E2FEC89EA93AC8933D5A0E052D5E4
:10059600EC89EF5FEA93AC892CD5103019F4003062
:1005A60009F447C00117C0F457D6AD850A1720F0E5
:1005B600A4E040D554D6F9CF2D87AD851A1720F083
:1005C600A2E038D54CD6F9CFE1E0EC87AC855A17D6
:1005D60018F049D64AD6FACF1017C0F43DD6AD85E5
:1005E6001A1720F0A4E026D53AD6F9CF3D87AD8577
:1005F6000A1720F0A3E01ED532D6F9CFE1E0EC874A
:10060600AC854A1718F02FD630D6FACF011781F4E9
:1006160023D6AD851A1720F0A4E00CD520D6F9CF45
:10062600E1E0EC87AC855A1718F01DD61ED6FACF36
:1006360008C012D6EA89AD85EA1718F014D60FD687
:10064600F9CF8FDA65960895F9D5E4E8F3E060E02E
:1006560070E06DD90E2EF2D5E1E0F0E060E070E0DA
:100666005ED9E02929F0A6E9B0E008D5F0D510C09A
:10067600E5D5D6D5AAD95ADA19F0E0D5D1D5F9D526
:10068600ABE9B0E0FBD4FFD5F4D5FDD5D4D901D67E
:10069600089543D520FC07C0FFD5309719F0FCD547
:1006A600F8D501C0FED500D6309719F0FDD501D694
:1006B60001C0F7D503D6309719F000D6FAD501C098
:1006C600F0D533D5EAE0F0E0A8D9E3D5E89420F8F0
:1006D600A0C4F9D511F0E5E001C0E0E0EA93FAD54F
:1006E600AFE9B0E0F9D511F0FDD501C002D604D6C8
:1006F600E03019F001D604D601C0FBD505D60BC5EE
:10070600E2D511F0E0E001C0E5E0EA93E3D5A3EA23
:10071600B0E0E2D511F0E6D501C0EBD5EDD5E0307D
:1007260019F0EAD5EDD501C0E4D5EED5F4C4F0D57F
:10073600F3D5F6D5C2D979D5EBD5F5D5F1D5C1D94D
:100746005F01E6D5F5D5ECD5BCD96F01E1D5F5D578
:10075600E7D5B7D9F7D5E0918801E03011F4939841
:1007660001C0939AF4D503D60CD6A5EAB0E086D498
:1007760008950AD6CDD5309719F4A7EAB0E054C04B
:10078600C7D5E130A0E0FA0709F44CC0C1D5E23084
:10079600A0E0FA0719F4A5EBB0E046C0B9D5E330FE
:1007A600A0E0FA0719F4ACEBB0E03EC0B1D5E430F6
:1007B600A0E0FA0719F4A3ECB0E036C0A9D5E530FD
:1007C600A0E0FA0719F4AAECB0E02EC0A1D5E630F5
:1007D600A0E0FA0719F4A1EDB0E026C099D5E730FC
:1007E600A0E0FA0719F4A8EDB0E01EC091D5E830F4
:1007F600A0E0FA0719F4AFEDB0E016C089D5E930EC
:10080600A0E0FA0719F4A6EEB0E00EC081D5EA30F2
:10081600A0E0FA0719F4ADEEB0E006C0AFE0B0E034
:10082600B6D567D9AEEAB0E029D481DF0895F3D30F
:1008360095D4E938A3E1FA0728F0A4E0B0E0E0E6B1
:10084600F3E157D9A7D5E0EAF1E053D9A6D5E1ED12
:10085600F1E04FD9A5D5ABD53DD5A4EFB0E00ED488
:10086600B59BFECFD8D3A5E0B1E008D477D4DF019D
:1008760010DFAEE0B1E09ED59FD5A3E1B1E0FED397
:10088600B39908C06BD4EC37A5E1FA0718F466D41F
:1008960031962FD9B49908C061D4E539A1E1FA0798
:1008A60018F05CD4319725D989D5B59B01C0DACF2C
:1008B600B59BFECF85D50ED5A4E2B1E083D57CD518
:1008C600AFE2B1E0DBD3B59B01C0F2CFF30162D555
:1008D6007FD5B59BFECF74D5FDD4A0E4B1E072D52B
:1008E6006BD5AFE2B1E0CAD3B59B01C0F2CFF3013D
:1008F60054D56ED55CD5EED4ACE4B1E0BFD350D5BB
:10090600ACEDB5E017D687D30895E0E0E7BBEFEF8F
:10091600E8BBE8EFE4BBEFEFE1BBA0E1D1D37BD3CB
:10092600ADE5B1E0ABD3AEE6B1E0A8D3A0EDB7E05C
:1009360001D6B59B7CDF6FD3E6E2F0E013D4A0E0EE
:100946004BDDEEE2F0E00ED4A1E046DDE6E3F0E0BA
:1009560009D4A2E041DDEEE3F0E004D4A3E03CDDFF
:10096600E6E4F0E0FFD3A4E037DDDDC0ACE2B1E0C1
:10097600E1D5B59B07C0ECE0EA931ED5A8E5B1E04A
:1009860029D5D1C0E4D4C4D4C7D426D5B59BFECFCF
:10099600FBD4AFE7B1E072D3AA24BB24E0E2F0E0D7
:1009A600AE16BF0608F055C023D5EA15FB0549F477
:1009B60022D5309711F024D502C0E9D4C3D4AA2495
:1009C600BB24CC24DD24E0E2F0E0CE16DF06E8F519
:1009D600BED4CDD4F5D41AD59BD49ED4A1D46DD88B
:1009E600DF01CB01E0918401F091850160918601E0
:1009F60070918701AAD848F021D4A436E0E0BE075A
:100A0600E0E08E07E0E09E0708F40FC081D484D4AE
:100A1600E3D41ADE7DD487D407D56BD879D488D4AD
:100A260007D567D875D489D407D5B59B09C006D430
:100A3600A636E0E0BE07E0E08E07E0E09E0709F498
:100A460072C0F60131966F01BECFF50131965F0196
:100A5600A5CF97D4AEEEEED297D4A6E8B1E00ED3EA
:100A6600AFD4D4D4F1DD83D4B6990EC0C1D4AE16BA
:100A7600BF0620F4F50131965F0102C0AA24BB240B
:100A8600E0D451D4D1D4A4D4B1990DC000240A1411
:100A96000B0418F4F501319701C0AAD45F01D1D433
:100AA60042D4C2D495D4B0990EC0A2D4CE16DF06D5
:100AB60020F4F60131966F0102C0CC24DD24D1D496
:100AC60037D4B6D485D4B7990DC000240C140D04C0
:100AD60018F4F601319701C08BD46F01C2D428D423
:100AE600A7D476D4B39915C086D4309711F088D49C
:100AF60002C04DD427D4B399F7CFB39BFECF08D409
:100B06001CD49AD4E0918801E03011F4939801C086
:100B1600939AB29905C035D4C4D3B29BFECF03C015
:100B2600B59B24CF96CF25DE02DE4AD46FD48CDD6A
:100B3600B59902C0A6D41ACFB3990EC0E9D33A9795
:100B460018F4E6D3319604C0AFE0B0E0E0E0F0E0A0
:100B5600D0D70FDEB39BFECFB4990EC0D9D3E2D760
:100B660018F4D6D3319704C0AFE0B0E0EAE0F0E085
:100B7600C0D7FFDDB49BFECFB69902C082D412C0A7
:100B8600B19902C07ED42AC0B09902C07AD44CC0B2
:100B9600B79902C076D473C0B29903C0B29BFECF98
:100BA60058CFC3CFB69BFECF0BD494D3ADE8B1E0FC
:100BB60065D2A0917C01B0917D016BDDA1E9B1E028
:100BC6005DD261D466DDF3D363D4B599EDCFB59B21
:100BD600FECFEDD37FD369D4CAD3A7CFB19BFECFC7
:100BE600E6D378D3A8EAB1E049D2E8E0EA9372D333
:100BF600ADEAB1E043D241DCD301A3DBC2D324DDAD
:100C0600ECE0EA9367D3689420F8D20142DDA2EBC8
:100C1600B1E0D0D33DD4B599EECFB59BFECFC7D3C7
:100C260059D343D4A4D381CFC2D354D3A4EBB1E0D8
:100C360025D2E2E0F0E0E0938A01F0938B01B7D38E
:100C4600A0E0E4DBB09BFECFBBD3E1E0EA93EFE0AC
:100C5600EA93E0917C01F0917D0184D214D46EDC9C
:100C6600ECE0EA9337D3F0DCAAE0A3D2B599ECCF57
:100C7600B59BFECF9CD32ED318D459DD56CF97D330
:100C860029D3A1ECB1E0FAD1A7E9B1E0F7D1B79B3E
:100C9600FECFB4990AC0AAD2E5500AD432D7A6D25A
:100CA600E53018F405D4E5E02CD7A6E982D2B3994D
:100CB6000AC09CD2EB5FFCD324D798D2E33318F05A
:100CC600F7D3E2E31ED7E4E0EA9376D38FD2F0E0DF
:100CD600DF01DFDCA2EDB1E0D1D1B599DACFB59B6A
:100CE600FECF65D3F7D2E1D320CFFFCFCFD67B811E
:100CF6006A81F981E88177FB770F67FD7160972F2D
:100D06009E5781F078F0983190F4AA27BB27882760
:100D160008948795B795A7959A95D1F7EA23FB236B
:100D2600682305C0E8947727EE27FF2766276F77A5
:100D3600769508F4606877F9A991B99189919991A6
:100D4600EA17FB076807790797FB08959FD68FD6A2
:100D5600CDDF92D611F4AFD303C0EEF7ACD3ADD34B
:100D66002496089593D62497F9D6ADD3E3D62CF0DE
:100D7600EFEFFFEF6FE77FEF57C0AAD382D6ADB78D
:100D8600BEB711971F930F93DFD30F911F91A5D372
:100D96009AD3E3EFF4E065E37FE37CD530F498D3B0
:100DA60092D395D49AD30150104092D386D37F9391
:100DB6006F93FF93EF938CD3A0E0B0E080E89FE3BE
:100DC60086D4AF91BF918F919F911FD58BD3A6E209
:100DD600B2E485E69FE3CBD4E9D1EEE4F1E164E544
:100DE60070E4DCD170D3C3D47F936F93FF93EF93FA
:100DF60097D1ADE4B1E184ED9FE362D4AF91BF91A9
:100E06008F919F9102D57F936F93FF93EF93F80194
:100E16007CD523D4A8E1B2E781E39FE3A8D4AF91C0
:100E2600BF918F919F9153D4A0D62A9608952ED61E
:100E3600289794D660D3E0E5FCEA6EEA72EC2AD5F0
:100E460010F4BDD160C0EA85FB856C857D856ED6C4
:100E560011F48BD158C04FD3E8E1F2E761EB72E4AD
:100E660019D509F008F405C0EFEFFFEF6FE77FE74C
:100E76004AC041D3EBE3FAEA68EB7FE378D4EA872A
:100E8600FB876C877D8737D361DFB0D38F0133D380
:100E96003CD5E3D383D18AD1E0E0F0E060E07FE3A4
:100EA6007DD120D3ADE6BCE48CE69DE360D4A6EA12
:100EB600B3EE86EE90E40BD406D359D40ED330D1DC
:100EC600A8E2BDE886EA91E402D4EA83FB836C8358
:100ED6007D83FED2AA81BB818C819D81F8D3A3EF4D
:100EE600B4E085EB9FE343D47F936F93FF93EF9337
:100EF600EAD216D1E5D3AF91BF918F919F9185D458
:100F0600C0D5D80132D331D62E960895BFD52497B1
:100F1600F7D20CD611F453D127C0F7D20BD644F42E
:100F2600F9D204D611F421D11FC0EFD2F8D21CC0D9
:100F3600F1D2DE015BD391D5BED28FD3DF01CB01D7
:100F4600E9D2FED511F03BD10FC0DAD21AD32ED199
:100F5600E6D2E887F9876A877B87E881E17011F432
:100F6600CFD202C0CDD20DD32C960895FFE0FA95CC
:100F7600F1F70895A1B3AF70A1BB919A9098F6DFEF
:100F8600929AF4DFA0B39298F1DF929AEFDF9298EB
:100F9600A7FDF5CF0895A07FAB2BA2BB929AE6DF03
:100FA6009298E4DF0895AA939198A1B3A76FA1BB85
:100FB600B2B3BF70A881EFDFA881A295ECDF919A4A
:100FC600AAC0AA93D7DFA981EEDFD4DF909AA881C1
:100FD600EADF1FC0929ACADFE0B39298C7DFE07FCC
:100FE6000895C4DFF7DFAE2FF5DF9198E295EA2B7F
:100FF6000895AA93BFDFE881F0E0E457FE4FE08151
:10100600A981AE0FD0DFE981E0939001E881E093FA
:10101600910122960895AEDFA2E0C5DFABDFACE01A
:10102600C2DFA8DFA1E0BFDFE0E0E0939101E0933B
:1010360090010895AA93EF93FF93A8816894AA302C
:1010460039F0E894E0919201A0919001AE1750F02A
:10105600E0919101EF5FE0939101A9D1A0919101F7
:10106600C8DF4EF0E0919001EF5FE093900182DFE0
:10107600909AA88198DFFF91EF914DC04ED01A93B8
:10108600E981FA813196E983FA833197E4911E2F3B
:10109600E03019F0A12FCEDFF3CF18812396089503
:1010A600AA27BB271197F1F70895AA939198A1B3A0
:1010B600A76FA1BBB2B3BF70A8816DDF919A2BC099
:1010C600AA9392989098E881E0939201E058E09371
:1010D6008E01E881E054E0938F0129D228D227D2ED
:1010E600DFDFA0E2E2DFDCDFA8E25DDFD9DFA4E03C
:1010F6005ADFD6DFA5E857DFD3DFA1B3AF70A1BBB8
:10110600919A6FDFE53011F0E0E005C033DFA6E02D
:101116004ADF81DFE1E021960895BA93AA93089504
:10112600EA81FB816C817D810895A881B98108954A
:10113600F4DFA4E0B0E0C5D4FA93EA93E0E0F0E08F
:1011460060E87FE39ED4089586D8E0916001F0912F
:10115600610160916201709163010895A4E0B0E0BD
:10116600B0D40895FA93EA930895E0E0F0E060E8D9
:101176007FE30895A0917001B09171018091720191
:1011860090917301E0E0F0E06AE774E43ED30895DD
:10119600E0E0F0E06AE774E438D3089581D490D2B1
:1011A6000895E0E0F0E060E271E40895DF01CB012C
:1011B6000895B0E0BFC185E38A95F1F70895E0E0B0
:1011C600F0E060E070E00895E0938001F093810123
:1011D60060938201709383010895E0937C01F093FC
:1011E6007D0160937E0170937F010895AEE0B0E0CB
:1011F6006CD40895E7B9E5EDE6B90895E6B1E07176
:10120600E1300895E4B1F5B1662777270895A091F6
:101216007C01B0917D0180917E0190917F010895BE
:10122600E4E6F0E060E070E00895E0938401F09376
:10123600850160938601709387010895A0918401CA
:10124600B091850180918601909187010895E7EE1E
:10125600F3E060E070E0E9CFE1E0ED870895ED8529
:10126600EF5FED870895A1E0E5CEEC85EF5FEC87B3
:101276000895ABD39BDFEAE0F0E060E070E0DBD3FB
:10128600E05DAE2FD7CEDADFEAE0F0E060E070E0B6
:101296000895E05DAE2FCECE48DFE8EEF3E090D3C2
:1012A6000895ADE9B0E0EACE40DFE4E6F0E088D3A9
:1012B6000895DF01EAE0F0E0B0D3EBCF36DFEAE0F5
:1012C600F0E07ED30895AA93E0918801F091890118
:1012D60030970895A0E08DCED1DEA881E4E64FD305
:1012E600E0300895A881E4E64AD3AE2FEAE092D32F
:1012F600D0CFA1EAB0E0C2CEA881EAE040D30895FB
:10130600AE2FEAE087D3C5CFA881EAE083D3C1CF69
:10131600AFE0B0E0D6D30895A3E5B0E0F1D20895EA
:10132600AE0FBF1F0895A7E2B0E0EE0FFF1F0895AE
:10133600A1E1B0E0EE0FFF1F0895ADE3B0E0EE0FC0
:10134600FF1F0895E0938801F09389010895E2E074
:10135600F0E0E0938A01F0938B01F601E25BFF4F28
:10136600E491EA93F501E259FF4FA4914FC8F501C4
:10137600E259FF4FA491C4D9F601E25BFF4FA49155
:10138600A8C9E4E0EA93A6CFEAE0EA93A3CFE1E0B6
:10139600F0E00895A0E0B0E00895A2E0B0E008957E
:1013A600F9DF8FD3DFDEF9DF8CD3DF0172C7E0E030
:1013B600EA93089563DEFBCFA1E01BCEA8ECF9CE3D
:1013C6005CD8F5CF5BDED30164D9A0E1B1E0F2CF02
:1013D60090D3F4CF53DECDC9AE0FBF1FE091840189
:1013E600F091850160918601709187017AD3089505
:1013F600EFE1F0E00895E0918801F0918901089508
:10140600E0E0E0938801E09389010895E1E0EA9342
:10141600EBE0EA93E0917C01F0917D01A3DEA091DF
:101426008001B09181018AC8AE0FBF1FF5010895F2
:10143600AE0FBF1FF6010895AE0FBF1FDCDF59D3F5
:101446000895E0E0E0938A01E0938B01F601E25B08
:10145600FF4FE491EA93F501E259FF4FA491D6D7E5
:1014660057CF95DFE0938A01F0938B01F601E25B9B
:10147600FF4FE491EA93F501E259FF4FA491C6D7D5
:1014860047CFA2E396CEA0918001B0918101089545
:10149600E1E0EA93EFE0EA93E0917C01F0917D01CF
:1014A60061DEF1DF4BD8AAE084CEA7E9B1E092CFA6
:1014B600AEE0B0E00895D6D20895A0E0B0E080E8AE
:1014C6009FE3FED00895AE81BF81888599850895F2
:1014D600EE81FF81688579850895EE83FF836887AD
:1014E60079870895FADFF4DFEEDF41D1EA83FB83E3
:1014F6006C837D8315CEAA85BB858C859D850895D5
:10150600E885F9856A857B850895A885B9858A85E4
:101516009B850895EC81FD816E817F81089522DC93
:10152600AC81BD818E819F8122D140DE80CCB8DD29
:10153600A0E3BBCD109639F0A89580ED97E0019712
:10154600F1F71197C9F70895E991F99169917991A0
:1015560077FB660F771F88277E57880B7D938C93C2
:101566007EE7769567956EF00895E991F991699110
:10157600799177FB660F771F7A0F769567950EF050
:10158600089530976040704009F0705808955523CB
:1015960042F4503811F4E0FF04C03196691F791FF8
:1015A6006BF050E8572711F45F93CFC05F3F31F0DF
:1015B600660F000C57956795752F08955F93002069
:1015C6000AF0CFC0C8C050E8192E1522880F991FFF
:1015D6009527550F879550E8072E0522660F771F2A
:1015E6007527550F67950895689401C0E8945F9331
:1015F600F2DF703818F07F3F08F4A7C056E1571B9A
:10160600AAF4519558300EF4593030F0EFEFFFEF51
:101616006FEF7FE777F91AC077275523B9F0EE0FFA
:10162600FF1F661F771F5A95D1F710C077275830CE
:1016360028F0EF2FF62F672F5850F9CF552331F0AA
:1016460076956795F795E7955A95D1F700200AF4B0
:101656004FD15F910895689401C0E8943097604037
:101666007040B1F0002426F0772312F4009440D1A4
:10167600172E7EE1112032F07A95EE0FFF1F661FBE
:10168600111CF9CFEF2FF62F612D5F938ADF5F9143
:1016960008954F93AF01FD01DA01AB01BC01CA0108
:1016A600402D012C142E4F910895EA0FFB1F681F41
:1016B6000895E095F0956095EF5FFF4F6F4F0895A1
:1016C6005F9381DF903871F150E8152604C05F936F
:1016D6007ADF903839F1703821F1572F591B2BF1E9
:1016E60012F4D7DFFACF583118F0AA27BB2788277C
:1016F600583028F0AB2FB82F88275850F9CF5523EC
:1017060029F08695B795A7955A95D9F7502D512565
:1017160072F0CBDF38F46795F795E795739513F478
:1017260020C0B7DF3EDF5F910895D8F7FBCFEA1BF5
:10173600FB0B680B51F010F40094BBDF662392F3A9
:10174600EE0FFF1F661F7A95CBF7EE27FF2766275A
:1017560077275F910895EFEFFFEF6FE77FEF5F91D8
:101766000895EFEFFFEF6FE77FE75F9108955F93CF
:101776002ADF703851F3903841F301240894791F19
:1017860023F41CF300203AF3ECCF0F921F932F9310
:101796003F934F93112722279927689FA0018F9F78
:1017A600302D410D591F6B9F300D411D591F8E9FC6
:1017B60027D0BF9F25D06A9F23D0BE9F1DD0AF9F45
:1017C6001BD0AE9F110D291F391F491F591FE32F2B
:1017D600F42F652F522F4F913F912F911F910F900C
:1017E60066232AF0550FEE1FFF1F661F02C0739572
:1017F6004BF2CDDE5F910895100D211D391F02C0F9
:10180600200D311D491F591F08955F93DCDE703886
:1018160021F411200AF49FCFA4CF903809F495CF74
:1018260001240894970B1BF4D4F30020F3CF792FEF
:101836001F932F933F934F9311241127222733276A
:101846004427552790E2AE17BF078607410730F0B9
:10185600AE1BBF0B860B410B089401C08894551F25
:10186600221F331F111CAA1FBB1F881F441F9A95D6
:1018760051F7F901612D4F913F912F911F916623E9
:1018860032F0550FEE1FFF1F661F7A9543F27FDE7B
:101896005F91089599239AF0772342F0971748F0BD
:1018A60029F4AE17BF07860720F031F09894889484
:1018B6000895989408940895189488940895772321
:1018C600C2F7971798F3A9F7EA17FB07680788F393
:1018D60099F3ECCFAE0FBF1F861F971F0895EA1B23
:1018E600FB0B680B790B0895F195E195F04008958F
:1018F600F09560957095E195FF4F6F4F7F4F089576
:10190600EE0FFF1FEE0FFF1F08956F2F660F660B7A
:10191600762F08958B2F880F880B982F0895AE1772
:10192600BF0786079707E1E008F0EE270895EA1754
:10193600FB0768077907E1E008F0EE2708957A9F2C
:10194600702D6B9F700DF89F700DE99F700D6A9F4B
:10195600602D710DFB9F600D711DE89F600D711D5F
:101966008827FA9FF02D610D781FEB9FF00D611D02
:10197600781FEA9FE02DF10D681F781F0895002457
:1019860098E0AA0F001C0E1A10F40E0E01C0A160FA
:101996009A95B9F7EA2FA02D08950024112490E115
:1019A600AA0FBB1F001C111C0E1A1F0A18F40E0EDC
:1019B6001F1E01C0A1609A9599F7FD01D0010895F7
:1019C6003ED0EBDF0EF490DF08953F934F935F9385
:1019D600002411244427552730E2AA0FBB1F881F75
:1019E600991F001C111C441F551F0E1A1F0A460B77
:1019F600570B28F40E0E1F1E461F571F01C0A1606D
:101A06003A9559F7FD01BC01D001CA015F914F918A
:101A16003F910895B4DFEA2F0895E894B7FF04C014
:101A2600A095B09511966894F7FD5EDFB6DFFD01CF
:101A36000EF45ADF0895C9DFFD01BC010895E8944C
:101A4600F7FF02C051DF6894B7FF06C0A095B095B6
:101A5600119600F8039400FA0895ED93FD936D93A3
:101A66007C930895E881F9816A817B810895A88134
:101A7600B9818A819B810895E883F9836A837B8390
:101A860008957A936A93FA93EA9308959A938A93B8
:101A9600BA93AA930895689401C0E89401D0DEDD54
:101AA600182E862F612D192E972F712D1B2EBF2FC5
:101AB600F12D1A2EAE2FE12D0895129602D0BF01F8
:101AC6001297119602D0FE2F1197E199FECFFF9340
:101AD600FFB7F894AEBBBFBBE09AEDB3FFBFFF9173
:101AE600089507D012960F01FB0103D0F00112975B
:101AF600089507D01196EF93EF2F03D0EF9111972A
:101B06000895E19B02C0A895FCCF9FB7F894AEBBA1
:101B1600BFBBE09A8DB3E81719F0EDBBE29AE19AE4
:101B26009FBF089500240E160F0608953097604053
:101B36007040089500240A160B0608060906089543
:101B4600EA17FB07680779070895AE17BF078607E8
:101B5600970708955A934A933A932A931A930A93A6
:101B660008955D814C813B812A8119810881089500
:00000001FF
